:020000040000FA
:040000004BEF00F0D2
:100008005B82D9CF01F0DACF02F09EAA0EEF00F0A2
:1000180010EF00F045EF00F0AECF39F039EF00F007
:10002800385009E1020E375CD8A01DEF00F01FEF31
:1000380000F044EF00F0010E3A6E44EF00F05A0E63
:100048003724D96E020E3820DA6E000EDF6E44EFC8
:1000580000F05A0E3724D96E020E3820DA6E39C0F5
:10006800DFFF374A382A44EF00F039500A0AD8B47B
:1000780014EF00F0070AD8B423EF00F02DEF00F0DA
:100088009E9A02C0DAFF01C0D9FF5B9211007AEF95
:1000980005F0000E086E000E076EDDEF00F0848E8E
:1000A800878E65EF00F0074A082A848A878AC80E77
:1000B80000D0E82EFDD7849A879AC80E00D0E82E83
:1000C800FDD708BE73EF00F0085007E1C90E075CC2
:1000D800D8B071EF00F073EF00F057EF00F0000EAA
:1000E800086E000E076E849E879E89EF00F0074A0F
:1000F800082A848A878AC80E00D0E82EFDD7849AF9
:10010800879AC80E00D0E82EFDD708BE97EF00F0FA
:10011800085007E1C90E075CD8B095EF00F097EFDB
:1001280000F07BEF00F0000E086E000E076E848E64
:10013800AAEF00F0848AC80E00D0E82EFDD7849A72
:10014800C80E00D0E82EFDD7074A082A08BEB8EF27
:1001580000F0085007E1650E075CD8B0B6EF00F074
:10016800B8EF00F09EEF00F0000E086E000E076E6C
:10017800878ECBEF00F0878AC80E00D0E82EFDD717
:10018800879AC80E00D0E82EFDD7074A082A08BE6D
:10019800D9EF00F0085007E1650E075CD8B0D7EF3B
:1001A80000F0D9EF00F0BFEF00F0879A8490FFEFDE
:1001B80000F003C005F004C006F00650000AD8B4E9
:1001C800E8EF00F0FFEF00F00550000AD8B4D9EFCF
:1001D80000F0010AD8B453EF00F0030AD8B477EF5F
:1001E80000F0010AD8B49BEF00F0070AD8B4BCEFBE
:1001F80000F0FFEF00F01200130E166E000E176EDF
:100208009AEF01F0250E1B18D8B40DEF01F00FEF8F
:1002180001F019EF01F00FC0D9FF10C0DAFF1BC0C1
:10022800DFFF0F4A102A9AEF01F0000E156E21EF3A
:1002380001F0C00E151235EF01F011C0F6FF12C023
:10024800F7FF114A122A0800F5CF1BF01B50000ACD
:10025800D8B4ABEF01F0750AD8B41DEF01F09AEFEE
:1002680001F016C0D9FF17C0DAFFDECF18F0DDCFD6
:1002780019F0020E1626000E1722010E1B6E1B50D7
:10028800020DAA0EF324F66EBE0EF420F76E0900D6
:10029800F550185C0900F5501958D8B056EF01F020
:1002A80058EF01F05AEF01F064EF01F01B2A050E38
:1002B8001B18D8A462EF01F064EF01F043EF01F0DE
:1002C8001BC01AF091EF01F01A50020DAA0EF32488
:1002D800F66EBE0EF420F76E0900F5CF05F00A00A1
:1002E800F5CF06F018C003F019C004F089EC07F048
:1002F80003C00AF004C00BF0000E0D6E0A0E0C6E5F
:1003080034EC08F00A50300F1B6E0FC0D9FF10C034
:10031800DAFF1BC0DFFF0F4A102A1A061A28D8A4D2
:1003280098EF01F09AEF01F068EF01F011C0F6FFC5
:1003380012C0F7FF114A122A0800F5CF1BF01B5014
:10034800D8A4A9EF01F0ABEF01F006EF01F00FC060
:10035800D9FF10C0DAFF000EDF6E1200000E966E95
:10036800000E996E000E326E000E316E93EC08F09E
:10037800030E2C6E080E2B6E770EE82EFED72B2E52
:10038800FCD72C2EFAD700F0B6EC03F0030E2C6E37
:10039800080E2B6E770EE82EFED72B2EFCD72C2EB0
:1003A800FAD700F0E3EC09F0030E2C6E080E2B6E62
:1003B800770EE82EFED72B2EFCD72C2EFAD700F07E
:1003C800848087807BEC06F062EC02F028C02DF078
:1003D80029C02EF02DC003F02EC004F04DEC00F023
:1003E80012EC05F005C02FF006C030F030BE06EF65
:1003F80002F0F50E2F5C010E3058D8A006EF02F07F
:1004080008EF02F02CEF02F0848E878E1AEF02F0CC
:10041800314A322A848A878AC80E00D0E82EFDD74E
:10042800849A879AC80E00D0E82EFDD732BE28EFEE
:1004380002F0325007E10B0E315CD8B026EF02F023
:1004480028EF02F00CEF02F0000E326E000E316E53
:1004580030AE38EF02F00C0E2F5CFE0E3058D8B0DC
:1004680038EF02F03AEF02F0E8EF01F0849E879E41
:100478004CEF02F0314A322A848A878AC80E00D0AB
:10048800E82EFDD7849A879AC80E00D0E82EFDD7AB
:1004980032BE5AEF02F0325007E10B0E315CD8B091
:1004A80058EF02F05AEF02F03EEF02F0000E326E03
:1004B800000E316EE8EF01F04BEF00F020EEE2F0B5
:1004C80010EEBAF0070EDBCFE3FFE806FCE222EEFF
:1004D80000F010EE60F0590EDBCFE3FFE806FCE217
:1004E800BBEC09F0600E1C6E000E1D6E000E1F6E38
:1004F800010E1E6EBA0E206E000E216E11EC03F076
:10050800820E2A6EDE0EE82EFED72A2EFCD75A0E51
:10051800126E020E136ECB0E146EBF0E156E050E04
:10052800166ECF0E176EBF0E186E000E196EC20E25
:100538001A6E000E1B6EC3EC07F0C20E076E000E9B
:10054800086EF60E096EBF0E0A6E35EC04F0E8066A
:10055800D8A4B1EF02F0B3EF02F0BAEF02F0000E48
:100568000001CD6F010ECC6F0AEF03F0C20E076ECB
:10057800000E086EE20E096EBF0E0A6E35EC04F02E
:10058800E806D8A4CAEF02F0CCEF02F0D3EF02F0ED
:10059800000E0001CD6F020ECC6F0AEF03F0C20E01
:1005A800076E000E086ED10E096EBF0E0A6E35EC8E
:1005B80004F0E806D8A4E3EF02F0E5EF02F0ECEF70
:1005C80002F0000E0001CD6F030ECC6F0AEF03F0AE
:1005D800C20E076E000E086EE70E096EBF0E0A6E99
:1005E80035EC04F0E806D8A4FCEF02F0FEEF02F0C8
:1005F80005EF03F0000E0001CD6F040ECC6F0AEF7B
:1006080003F0000E0001CD6F000ECC6FBBEC09F0BB
:10061800CCC028F0CDC029F01200BBEC09F01CC0FA
:1006280003F01DC004F0BBEC08F003C024F004C0C4
:1006380025F026C00FF027C010F0F90E116EBF0E7E
:10064800126E24C013F025C014F000EC01F01E5007
:100658001F10D8A432EF03F034EF03F052EF03F089
:10066800240E036E000E046E5D0E056EBF0E066E40
:100678002DEC09F0240E036E000E046E26C005F062
:1006880027C006F0FCEC07F0240E036E000E046E83
:100698001B0E056EBF0E066EFCEC07F01E041F1045
:1006A800D8A459EF03F05BEF03F08DEF03F0240EAD
:1006B800036E000E046E5D0E056EBF0E066E2DEC09
:1006C80009F0240E036E000E046E20C005F021C050
:1006D80006F0FCEC07F0240E036E000E046EC90E43
:1006E800056EBF0E066EFCEC07F0240E036E000EBE
:1006F800046E26C005F027C006F0FCEC07F0240EB7
:10070800036E000E046E1B0E056EBF0E066EFCEC2B
:1007180007F0240E036E000E046EC6EC06F055ECCE
:100728000AF0BBEC09F0060E236E130E226EAE0E15
:10073800E82EFED7222EFCD7232EFAD71CC003F0B2
:100748001DC004F0C6EC06F08AEC0AF0060E236E13
:10075800130E226EAE0EE82EFED7222EFCD7232EC5
:10076800FAD71200000E3A6E000E386E000E376E81
:100778005A0E036E020E046E000E066E000E056E13
:10078800010E086EF40E076E9FEC09F006EC0AF0F5
:10079800AAEC04F0020AD8A4D4EF03F0D6EF03F0D1
:1007A800CCEF03F00B0E1A6E260E196E5E0EE82EB5
:1007B800FED7192EFCD71A2EFAD7F00E096EBF0EE7
:1007C8000A6E22EC0AF0AAEC04F0E806D8A4EFEFCF
:1007D80003F0F1EF03F0E7EF03F067EC09F0060E22
:1007E8001A6E130E196EAE0EE82EFED7192EFCD710
:1007F8001A2EFAD783EC09F0060E1A6E130E196E2C
:10080800AE0EE82EFED7192EFCD71A2EFAD74BECCF
:1008180009F0060E1A6E130E196EAE0EE82EFED7EC
:10082800192EFCD71A2EFAD74CEC07F0060E1A6EC2
:10083800130E196EAE0EE82EFED7192EFCD71A2EFF
:10084800FAD7F5EC09F0060E1A6E130E196EAE0EF5
:10085800E82EFED7192EFCD71A2EFAD7BBEC09F0D2
:100868001200000E136E000E126E000E0F6E000EB8
:100878000E6E000E116E000E106E07C003F008C059
:1008880004F0BBEC08F003C00EF004C00FF009C080
:1008980003F00AC004F0BBEC08F003C010F004C079
:1008A80011F010500E5C11500F58D8B05EEF04F0E4
:1008B80060EF04F063EF04F0000EA9EF04F0000EFF
:1008C800156E000E146E9CEF04F014500724D96EB8
:1008D80015500820DA6EDF500B6E125009240C6E8A
:1008E80013500A200D6E0CC0F6FF0DC0F7FF08006C
:1008F800F5500B18D8A483EF04F085EF04F096EFB9
:1009080004F0124A132A1250101807E11350111854
:10091800D8A491EF04F093EF04F09AEF04F0010EDD
:10092800A9EF04F0000E136E000E126E144A152A79
:100938000E50145C0F501558D8A0A5EF04F0A7EF7F
:1009480004F069EF04F060EF04F0120049EC0AF0DB
:100958003A50D8B4B2EF04F0B4EF04F0ACEF04F0BE
:100968005A0E076E020E086EF30E096EBF0E0A6E5F
:1009780035EC04F0E806D8A4C4EF04F0C6EF04F0A0
:10098800CAEF04F0010E166E0EEF05F05A0E076E50
:10099800020E086E890E096EBF0E0A6E35EC04F061
:1009A800E806D8A4DAEF04F0DCEF04F0E0EF04F096
:1009B800030E166E0EEF05F05A0E076E020E086E45
:1009C800D70E096EBF0E0A6E35EC04F0E806D8A4FF
:1009D800F0EF04F0F2EF04F0F6EF04F0020E166EFA
:1009E8000EEF05F05A0E076E020E086EFC0E096E29
:1009F800BF0E0A6E35EC04F0E806D8A406EF05F041
:100A080008EF05F00CEF05F0040E166E0EEF05F07A
:100A1800000E166EBBEC09F0165012009BEC0AF0A3
:100A28003B0E74EC0AF09FEC0AF09BEC0AF03CECED
:100A38000AF0076E0750096E086A3CEC0AF00A6E65
:100A48000A500810176E0950186E3CEC0AF03CEC7E
:100A58000AF03CEC0AF0076E0750096E086A3CEC95
:100A68000AF00A6E0A5008100D6E09500E6E3CEC22
:100A78000AF0076E0750096E086A3CEC0AF00A6E25
:100A88000A500810156E0950166E3CEC0AF0076EF5
:100A98000750096E086A3CEC0AF00A6E0A50081002
:100AA8000F6E0950106E3CEC0AF0076E0750096E85
:100AB800086A3CEC0AF00A6E0A500810116E0950D8
:100AC800126E3CEC0AF0076E0750096E086A2FECAC
:100AD8000AF00A6E0A500810136E0950146E9FEC43
:100AE8000AF017C005F018C006F01200CC0EF66E1A
:100AF800100EF76E000EF86E02EE00F010EE5AF0CF
:100B08000900F5CFEEFFE550E150FAE1100EF66E60
:100B1800120EF76E000EF86E01EE8CF010EE4AF031
:100B28000900F5CFEEFFE550E150FAE1060EF66E4A
:100B3800150EF76E000EF86E00EEE2F010EE0EF0F5
:100B48000900F5CFEEFFE550E150FAE1F80EF66E38
:100B5800140EF76E000EF86E00EE4DF010EE0EF06B
:100B68000900F5CFEEFFE550E150FAE102EE5AF048
:100B780011EEF4F0EE6AE550E150FCE1E250FAE1E2
:100B880001EE00F08C0EEE6AE806FDE100EECEF014
:100B9800140EEE6AE806FDE100EE33F01A0EEE6A76
:100BA800E806FDE15B905B92000EF86E0001B2EF83
:100BB80001F016EF06F00EC007F00FC008F010C0E5
:100BC80009F011C00AF010C003F011C004F0BBEC2A
:100BD80008F003C00BF004C00CF030EC06F007502E
:100BE8000810D8A4FAEF05F0FCEF05F002EF06F0C4
:100BF8000EC00EF00FC00FF02FEF06F0010E0E24FE
:100C0800036E000E0F20046E10C0F6FF11C0F7FF30
:100C18000800F550056E066AE2EC08F003C00EF015
:100C280004C00FF00E500F10D8B41DEF06F01FEFE0
:100C380006F02BEF06F00EC0D9FF0FC0DAFFDF5029
:100C4800D8A429EF06F02BEF06F0DFEF05F0000E31
:100C58000E6E000E0F6E120069EF06F007C0D9FF86
:100C680008C0DAFFDF50D8B43CEF06F03EEF06F0DC
:100C780052EF06F007C0D9FF08C0DAFFDF500D6E4B
:100C880009C0F6FF0AC0F7FF0800F5500D18D8B4E0
:100C980050EF06F052EF06F065EF06F007C0D9FFF7
:100CA80008C0DAFFDF500D6E09C0F6FF0AC0F7FF73
:100CB8000800F5500D5C076E086AD8A008067AEFA0
:100CC80006F0074A082A094A0A2A0B06D8A00C0681
:100CD8000B2806E10C28D8A474EF06F076EF06F08E
:100CE80032EF06F0000E086E000E076E1200020EBC
:100CF800066E040E056EBA0EE82EFED7052EFCD73A
:100D0800062EFAD700D060EC0AF09BEC0AF0190E18
:100D180074EC0AF0070E74EC0AF09FEC0AF09BECF6
:100D28000AF06B0E74EC0AF0010E74EC0AF09FECFA
:100D38000AF09BEC0AF01A0E74EC0AF0000E74EC40
:100D48000AF09FEC0AF09BEC0AF01C0E74EC0AF017
:100D5800000E74EC0AF09FEC0AF09BEC0AF01B0EF4
:100D680074EC0AF0180E74EC0AF09FEC0AF09BEC95
:100D78000AF0380E74EC0AF0010E74EC0AF09FECDD
:100D88000AF01200000E086E000E076E07500324CA
:100D9800056E08500420066E05C0F6FF06C0F7FF72
:100DA800F86A0F0EF76403D00800F55005D0F6CFA7
:100DB800E9FFF7CFEAFFEF50AD6EACA2E6EF06F021
:100DC800E8EF06F0E1EF06F0074A082A0750032487
:100DD800056E08500420066E05C0F6FF06C0F7FF32
:100DE800F86A0F0EF76403D00800F55005D0F6CF67
:100DF800E9FFF7CFEAFFEF500009D8A406EF07F0A4
:100E080008EF07F0CAEF06F0AB9E120003C009F026
:100E180004C00AF02BEF07F00706D8A0080605C0A3
:100E2800D9FF06C0DAFF054A062A09C0E1FF0AC051
:100E3800E2FF094A0A2ADFCFE7FFE750D8A427EFE5
:100E480007F029EF07F02BEF07F03EEF07F0075008
:100E58000810D8A432EF07F034EF07F010EF07F0CE
:100E68003EEF07F009C0D9FF0AC0DAFF000EDF6EB7
:100E7800094A0A2A0706D8A00806072806E108280A
:100E8800D8A449EF07F04BEF07F036EF07F0120050
:100E98007F0E096EBF0E0A6E22EC0AF0220E14ECC9
:100EA8000AF0EC0E036EBF0E046EC6EC06F0220EBE
:100EB80014EC0AF02C0E14EC0AF0220E14EC0AF0D2
:100EC800690E036EBF0E046EC6EC06F0220E14EC1B
:100ED8000AF08AEC0AF0AAEC04F0E806D8A477EF46
:100EE80007F079EF07F07BEF07F088EF07F0060EC1
:100EF800186E130E176EAE0EE82EFED7172EFCD7FF
:100F0800182EFAD74CEF07F01200000E086E000EEC
:100F1800076E05500610D8B494EF07F096EF07F067
:100F2800BEEF07F0010E096E9EEF07F0D890053668
:100F38000636092A06AEA3EF07F0A5EF07F09AEFE9
:100F480007F0D890073608360550035C0650045859
:100F5800D8A0B1EF07F0B3EF07F0B8EF07F00550EE
:100F6800035E0650045A0780D89006320532092ECF
:100F7800A5EF07F007C003F008C004F0120012C084
:100F88000EF013C00FF014C010F015C011F0DDEC16
:100F980005F016500E241F6E000E0F20206E1FC085
:100FA8000EF020C00FF017C010F018C011F0DDECE3
:100FB80005F019500E241C6E000E0F201D6E1F50D8
:100FC8001C5C1E6E1AC003F01BC004F01FC005F0A5
:100FD80020C006F01EC007F0086A0AEC07F01E5091
:100FE8001A24D96E000E1B20DA6E000EDF6E120076
:100FF80003C007F004C008F004EF08F0074A082A05
:1010080007C0D9FF08C0DAFFDF50D8A40EEF08F0F8
:1010180010EF08F002EF08F016EF08F0074A082A68
:10102800054A062A05C0F6FF06C0F7FFF86A07C09A
:10103800D9FF08C0DAFF0F0EF76403D00800F55097
:1010480005D0F6CFE9FFF7CFEAFFEF50DF6EDF50AC
:10105800D8A431EF08F033EF08F012EF08F01200CF
:101068000C500D10D8B43BEF08F03DEF08F061EFDD
:1010780008F0010E0E6E45EF08F0D8900C360D36CC
:101088000E2A0DAE4AEF08F04CEF08F041EF08F0D9
:101098000C500A5C0D500B58D8A055EF08F057EFCC
:1010A80008F05BEF08F00C500A5E0D500B5AD89010
:1010B8000D320C320E2E4CEF08F00AC00AF00BC0AD
:1010C8000BF0120068747470733A2F2F6170692ED8
:1010D8007468696E67737065616B2E636F6D2F63DB
:1010E80068616E6E656C732F313238313231342F4E
:1010F80066656564732E6A736F6E3F6170695F6BB6
:1011080065793D584C5049445858494953544A53B5
:1011180037385A26726573756C74733D3100C19007
:10112800C182C184C1969380979C859C979C859C1D
:10113800858C858C060E046E130E036EAE0EE82E9B
:10114800FED7032EFCD7042EFAD7859C859C949253
:101158008292060E046E130E036EAE0EE82EFED7B4
:10116800032EFCD7042EFAD76BEC0AF0120003C04A
:1011780005F004C006F0C3EF08F0054A062A05C0CA
:10118800F6FF06C0F7FFF86A0F0EF76403D00800F1
:10119800F55005D0F6CFE9FFF7CFEAFFEF50000989
:1011A800D8A4D9EF08F0DBEF08F0C1EF08F003503E
:1011B800055C036E04500658046E120003C0D9FF84
:1011C80004C0DAFF0550DE18D8A4EDEF08F0EFEF01
:1011D80008F0F5EF08F003C003F004C004F007EFCF
:1011E80009F003C0D9FF04C0DAFF034A042ADF501C
:1011F800D8A401EF09F003EF09F0E2EF08F0000EC0
:10120800036E000E046E120041542B434950535490
:101218004152543D22544350222C226170692E744D
:1012280068696E67737065616B2E636F6D222C3809
:10123800300D0A003C68313E48656C6C6F3C2F6885
:10124800313E3C68323E53414D4545523C2F683251
:101258003E0003C007F004C008F037EF09F0074A62
:10126800082A054A062A05C0F6FF06C0F7FF07C088
:10127800D9FF08C0DAFF0800F5CFDFFFDF50D8A498
:1012880048EF09F04AEF09F033EF09F01200450E74
:10129800096EBF0E0A6E22EC0AF0AAEC04F0E8060A
:1012A800D8A459EF09F05BEF09F051EF09F00B0EE4
:1012B800186E260E176E5E0EE82EFED7172EFCD778
:1012C800182EFAD712009C0E096EBF0E0A6E22EC79
:1012D8000AF0AAEC04F0E806D8A475EF09F077EF55
:1012E80009F06DEF09F00B0E186E260E176E5E0EE4
:1012F800E82EFED7172EFCD7182EFAD71200510E5B
:10130800096EBF0E0A6E22EC0AF0AAEC04F0E80699
:10131800D8A491EF09F093EF09F089EF09F00B0ECB
:10132800186E260E176E5E0EE82EFED7172EFCD707
:10133800182EFAD7120003C009F004C00AF0ADEF66
:1013480009F009C0D9FF0AC0DAFF05C0DFFF094A62
:101358000A2A0706D8A00806072806E10828D8A4FC
:10136800B8EF09F0BAEF09F0A5EF09F012005A0E2C
:10137800036E020E046E000E066E000E056E37C078
:1013880007F038C008F09FEC09F0000E3A6E000E26
:10139800386E000E376E1200C7B4D5EF09F0D7EFDC
:1013A80009F0D0EF09F0C5CF03F01F0E0316D8A43B
:1013B800E0EF09F0E2EF09F0D0EF09F012008C0E2F
:1013C800036E010E046EC6EC06F00B0E0A6E260EB6
:1013D800096E5E0EE82EFED7092EFCD70A2EFAD724
:1013E8001200740E096EBF0E0A6E22EC0AF0AAEC07
:1013F80004F0E806D8A403EF0AF005EF0AF0FBEFC3
:1014080009F012008292060E046E130E036EAE0EE1
:10141800E82EFED7032EFCD7042EFAD782921200AC
:10142800036E6BEC0AF003C0ADFFACA21EEF0AF02E
:1014380020EF0AF019EF0AF0AB9E120009C003F082
:101448000AC004F0C6EC06F00D0E14EC0AF00A0E01
:1014580014EC0AF01200C5869EA635EF0AF037EFA5
:101468000AF030EF0AF09E9691EC0AF0C95012008B
:10147800C5869EA642EF0AF044EF0AF03DEF0AF057
:101488009E9696EC0AF0C9501200AC84330EAF6EEB
:10149800AC98AB8E948C948E9D8AF28CF28EAB882D
:1014A8001200AAEC04F0E806D8A45DEF0AF05FEF9A
:1014B8000AF055EF0AF01200280EC66E000EC56E2F
:1014C800000EC76E130EC86E948694881200AC8402
:1014D800330EAF6EAC98AB8E948C948EAC8A12009F
:1014E800046ED0EC09F004C0C9FFD0EC09F012007A
:1014F80069BFECBF31323531003C68313E003132D2
:101508003831323134003C2F68313E000D0E14EC76
:101518000AF00A0E14EC0AF01200D0EC09F0C58AA1
:10152800C5881200D0EC09F0C59AC5881200D0EC25
:0E15380009F0C5801200D0EC09F0C584120045
:10BE5E000041542B4349505345525645523D0041E3
:10BE6E00542B434950434C4F53453D0041542B43B3
:10BE7E00495053544152543D0041542B4349505361
:10BE8E0054415455530041542B4349504D55583D40
:10BE9E000041542B43574D4F44453D0001000A00CD
:10BEAE006400E803102741542B43575341503D0083
:10BEBE0041542B43574A41503D0041542B43494670
:10BECE0053520041542B43575141500041542B4380
:10BEDE00574C41500041542B52535400040302015D
:10BEEE0038300041542B43495053454E443D302C7D
:10BEFE0032390041542B4349505345525645523D19
:10BF0E00310041542B434950434C4F53450D0A00C9
:10BF1E0041542B434950434C4F53453D30004154FF
:10BF2E002B434950434C4F53453D0041542B4349FD
:10BF3E00504D55583D300041542B4349504D5558A6
:10BF4E003D310041542B43574D4F44453D33004145
:10BF5E00542B43495053454E443D00303132333417
:10BF6E0035363738390041542B43574A41503D3FFF
:10BF7E000041542B43574A41503D006E6F20636879
:10BF8E00616E6765005354414D41432C220041546C
:10BF9E002B43575141500041542B434946535200B5
:10BFAE0041504D41432C220053544149502C220004
:10BFBE00415049502C22002B4950442C0064697288
:10BFCE00385F007269676874007265616479002B6E
:10BFDE0049504400646F776E006C656674006A6F3A
:10BFEE006F004154006F6B007570002575003E00A8
:01BFFE000042
:020000040020DA
:08000000FFFFFFFFFFFFFFFF00
:020000040030CA
:0E000000FF021B1EF38385FFFFC0FFE0FF40E1
:00000001FF
